S01700004763634170706C69636174696F6E312E737265635B
S11300000EC028C027C09CC325C024C023C022C062
S113001021C020C01FC01EC01DC01CC01BC0112495
S11300201FBECFE5D2E0DEBFCDBF10E0A0E6B0E05A
S1130030E6E8FAE002C005900D92AA36B107D9F7B6
S113004020E0AAE6B0E001C01D92A639B207E1F7AC
S1130050B5D215C5D5CFCF93DF93EC0181E088836A
S11300604CE251E060E070E04D835E836F837887FB
S113007040E25EE460E070E049875A876B877C87E2
S11300804FEF5FEF6FEF7FE049835A836B837C838D
S113009092D36D877E878F87988BDF91CF91089558
S11300A08F929F92AF92BF92CF92DF92EF92FF9284
S11300B00F931F93CF93DF93CDB7DEB728970FB677
S11300C0F894DEBF0FBECDBF8C0119821A821B8249
S11300D01C821D821E821F821886F894C198BA98C9
S11300E0BA9AC2988AE18A95F1F7BA98C19A789433
S11300F0C12CD12C760161C05ED34B015C0164D369
S1130100B501A401440F551F661F771F440F551FE7
S1130110661F771F440F551F661F771F4A015B0137
S1130120880C991CAA1CBB1C880C991CAA1CBB1CFF
S1130130480D591D6A1D7B1D4A015B01880C991CE1
S1130140AA1CBB1C880C991CAA1CBB1C480D591D5D
S11301506A1D7B1D4A015B01880C991CAA1CBB1CEF
S1130160880C991CAA1CBB1C480D591D6A1D7B1DBB
S1130170480F591F611D711D4D835E836F837887FE
S11301808D819E81AF81B88549815A816B817C8143
S1130190841B950BA60BB70B0A97A105B10568F054
S11301A08AE0C80ED11CE11CF11C8D819E81AF81B7
S11301B0B88589839A83AB83BC83B2990BC0F80159
S11301C085819681A781B085C816D906EA06FB0603
S11301D008F492CFF80181899289A389B4898C0D9E
S11301E09D1DAE1DBF1D818B928BA38BB48BF89488
S11301F0C29ABA9AC29ABA98C1987894BA9AC2988A
S11302008AE18A95F1F7BA9888EC90E00197F1F7C2
S1130210F80185819681A781B085C816D906EA06BA
S1130220FB0628F06EEF7FEF8FEF9FEF04C061E0D5
S113023070E080E090E028960FB6F894DEBF0FBE21
S1130240CDBFDF91CF911F910F91FF90EF90DF9081
S1130250CF90BF90AF909F908F9008950F931F936E
S1130260CF93DF93EC01062F198A1A8A1B8A1C8A02
S1130270662309F462C0888188230CF462C010E00C
S1130280CE010EDF99230CF460C01F5F1013F8CF6A
S113029092D20D851E852F853889AB01BC01401B88
S11302A0510B620B730B89859A85AB85BC858417CA
S11302B09507A607B70728F569817A818B819C8108
S11302C029893A89261B370B890122F40027112733
S11302D0021B130BB3D22DEC3CEC4CEC5DE33CD392
S11302E07CD2061717076CF48FEF9FEFAFEFBFE0D8
S11302F089839A83AB83BC835ED26D877E878F8725
S1130300988B89899A89AB89BC8909811A812B8147
S11303103C8180179107A207B30720F489839A834D
S1130320AB83BC8309811A812B813C81BC01CD0143
S1130330601B710B820B930B0CC060E070E0CB016F
S113034008C06FEF7FEFCB0104C06EEF7FEF8FEF3C
S11303509FEFDF91CF911F910F910895882319F09A
S1130360813021F00895C398C49A0895C39AC4981B
S11303700895C398C4988FEF89BD08952F923F9232
S11303804F925F926F927F928F929F92AF92BF92A1
S1130390CF92DF92EF92FF920F931F93CF93DF934D
S11303A0CDB7DEB72C970FB6F894DEBF0FBECDBF26
S11303B069837A838B839C832D833E834F83588701
S11303C0E986FA860B871C8719BC89819A81AB81DF
S11303D0BC81892B8A2B8B2B09F492C0812C912C04
S11303E0540111E000E00F2EF8EC2F2E312CF02DEB
S11303F081E0B4DF6D817E818F8198851FD22B01CE
S11304003C0120E030E04AEF54E4A6D26B017C01C9
S113041020E030E040E85FE3DCD188230CF120E009
S11304203FEF4FE757E4C701B60192D21816A4F480
S113043020E030E040E251E4C301B2018DD2D2D1D8
S11304406115710591F0C1010197F1F761507109CE
S113045061157105C1F709C0C701B601C3D102C056
S1130460612F702FCB010197F1F783DF69857A85BE
S11304708B859C85E3D12B013C0120E030E04AEFE1
S113048054E46AD26B017C0120E030E040E85FE391
S1130490A0D188230CF120E03FEF4FE757E4C701D8
S11304A0B60156D21816A4F420E030E040E251E43C
S11304B0C301B20151D296D16115710591F0C10108
S11304C00197F1F76150710961157105C1F709C010
S11304D0C701B60187D102C0612F702FCB010197EC
S11304E0F1F79FEF891A990AA90AB90A89819A81B1
S11304F0AB81BC8188169906AA06BB0609F078CFA1
S11305002C960FB6F894DEBF0FBECDBFDF91CF910E
S11305101F910F91FF90EF90DF90CF90BF90AF901D
S11305209F908F907F906F905F904F903F902F900F
S11305300895EF92FF920F931F93CF93DF93EC01F3
S113054068818B81681771F070E080E090E014EFAF
S1130550E12EFF24F39400E010E024EF31E040E0CA
S113056050E00CDF88818330B1F028F4813051F001
S1130570823069F005C08530A9F090F08630A1F092
S1130580F8DE13C084E689BD81E0E8DE0EC019BC44
S113059081E0E4DE0AC084E689BD81E0DFDE05C0D7
S11305A0E8DE03C0E6DE01C0E4DE88818B83DF91F0
S11305B0CF911F910F91FF90EF900895F89480E8E8
S11305C086BD16BC82E087BD07B400FEFDCF87B5AB
S11305D0846087BD87B3896187BB85E880BF87E274
S11305E08DBD89B7806489BF789483EC8ABD82E02D
S11305F083BFE0E0F0E010821182128282E990E091
S113060098DF88E790E027DD02E910E0CEE8D0E04B
S1130610C12CD12C7601C3946EE188E790E01EDEF4
S1130620653071058105910548F010928E00109295
S11306308F00109290001092910008C0C0928E001A
S1130640D0928F00E0929000F0929100409174005B
S113065050917500609176007091770080916E00E2
S113066090916F00A0917000B0917100481B590BDC
S11306706A0B7B0B8091640090916500A0916600E9
S1130680B091670084179507A607B70708F540914E
S11306908D0080918E0090918F00A0919000B09178
S11306A0910050E060E070E0481759076A077B0743
S11306B079F080938D0080918D00811109C0F8013B
S11306C080818F5F863010F4808302C0F80110822D
S11306D08881809368008091740090917500A09146
S11306E07600B091770040916A0050916B00609160
S11306F06C0070916D00841B950BA60BB70B409199
S1130700600050916100609162007091630048172D
S113071059076A077B0708F07FCF80917400909196
S11307207500A0917600B091770080936A00909351
S11307306B00A0936C00B0936D00C801FADE6CCF1F
S11307401F920F920FB60F9211242F938F939F93A2
S1130750AF93BF9380917200909173000A96909327
S11307607300809372008091720090917300883EB0
S11307709340B9F410927300109272008091740047
S113078090917500A0917600B09177000196A11D1B
S1130790B11D8093740090937500A0937600B0937C
S11307A07700BF91AF919F918F912F910F900FBEC2
S11307B00F901F901895609174007091750080914E
S11307C07600909177000895809172009091730063
S11307D0089571D008F481E0089504D06894B111AB
S11307E0B1C0089594D088F09F5790F0B92F9927FD
S11307F0B751A0F0D1F0660F771F881F991F1AF028
S1130800BA95C9F712C0B13081F09BD0B1E0089518
S113081098C0672F782F8827B85F39F0B93FCCF399
S1130820869577956795B395D9F73EF4909580951D
S1130830709561957F4F8F4F9F4F0895E89409C03D
S113084097FB3EF490958095709561957F4F8F4FFF
S11308509F4F9923A9F0F92F96E9BB279395F69515
S1130860879577956795B795F111F8CFFAF4BB0F93
S113087011F460FF1BC06F5F7F4F8F4F9F4F16C0F7
S1130880882311F096E911C0772321F09EE8872F81
S1130890762F05C0662371F096E8862F70E060E03D
S11308A02AF09A95660F771F881FDAF7880F9695B6
S11308B0879597F90895990F0008550FAA0BE0E85A
S11308C0FEEF16161706E807F907C0F0121613060E
S11308D0E407F50798F0621B730B840B950B39F44E
S11308E00A2661F0232B242B252B21F408950A26B4
S11308F009F4A140A6958FEF811D811D089557FD30
S11309009058440F551F59F05F3F71F04795880F79
S113091097FB991F61F09F3F79F087950895121610
S113092013061406551FF2CF4695F1DF08C01616BC
S113093017061806991FF1CF86957105610508946D
S11309400895E894BB2766277727CB0197F9089584
S1130950B2DF08F48FEF08950AD080C071D028F078
S113096076D018F0952309F062C067C0EBCFC7DFDB
S1130970A8F39923D9F35523C9F3950F50E0551FD4
S1130980AA27EE27FF27BB2700240894679520F4A5
S1130990E20FF31FB41F0A1E220F331F441FAA1FA6
S11309A06695A9F7779530F4F30FB41F0A1E121E4B
S11309B008F46395330F441FAA1F221F769599F7F5
S11309C0879520F4B40F0A1E121E631F440FAA1F3A
S11309D0221F331F8695A9F7862F712D602D1124B0
S11309E09F5750408AF0E1F088234AF0EE0FFF1F32
S11309F0BB1F661F771F881F91505040A9F79E3F69
S1130A00510570F014C09ECF5F3FECF3983EDCF3C9
S1130A10869577956795B795F795E7959F5FC1F7A5
S1130A20FE2B880F911D9695879597F9089597F950
S1130A309F6780E870E060E008959FEF80EC089580
S1130A4000240A94161617061806090608950024A9
S1130A500A9412161306140605060895092E039423
S1130A60000C11F4882352F0BB0F40F4BF2B11F497
S1130A7060FF04C06F5F7F4F8F4F9F4F0895F894BE
S1090A8000C0F894FFCF52
S10D0A86FA000000FA00000001006D
S9030000FC
