:100000000EC01DC01CC095C01AC019C018C017C0B2
:1000100016C015C014C013C012C011C010C01124E6
:100020001FBECFE5D2E0DEBFCDBF20E0A0E6B0E04E
:1000300001C01D92AB3BB207E1F741D0B5C0E0CFA4
:10004000FC0182E390E0A0E0B0E086879787A08B78
:10005000B18B13A212A21082118212821382089510
:10006000FC01118210821382128214821782108680
:1000700011861286138614861586168681EA90E00C
:10008000908B87870895F89480E886BD16BC82E03F
:1000900087BD07B400FEFDCF87B5846087BD87B3F9
:1000A000896187BB85E880BF87E28DBD89B78064A1
:1000B00089BF789483EC8ABD82E083BF0895E3DF33
:1000C00081EA90E00ED08AE890E0CADF86E690E010
:1000D000B7DFBA98C298B998C198B99AC198C19A2D
:1000E000FFCF41E050E060E070E0FC0140835183CD
:1000F0006283738342E050E060E070E044835583A4
:1001000066837783EFEAF0E080E091E0A0E0B0E082
:1001100080839183A283B38381E090E0958384837D
:10012000E9EAF0E04083518362837383158214828D
:1001300008951F920F920FB60F9211242F938F9351
:100140009F93AF93BF9380916000909161000A9656
:1001500090936100809360008091600090916100B5
:10016000883E9340B9F41092610010926000809133
:10017000620090916300A0916400B09165000196C7
:10018000A11DB11D8093620090936300A093640051
:10019000B0936500BF91AF919F918F912F910F9078
:1001A0000FBE0F901F901895F89400C0F894FFCFE1
:00000001FF
