S01300006C6C6D6F642D67656E2D302E7372656335
S11300000EC028C027C0D4C425C024C023C022C029
S113001021C020C01FC01EC01DC01CC01BC0112495
S11300201FBECFE5D2E0DEBFCDBF10E0A0E6B0E05A
S1130030EEE3FEE002C005900D92A036B107D9F7B9
S113004020E0A0E6B0E001C01D92A03AB207E1F7BB
S113005039D44DC6D5CFCF93DF93EC0181E08883AB
S11300608CE291E0A0E0B0E08D839E83AF83B887FB
S113007080E29EE4A0E0B0E089879A87AB87BC87E2
S11300808FEF9FEFAFEFBFE089839A83AB83BC838D
S1130090CAD46D877E878F87988BDF91CF9108951F
S11300A08F929F92AF92BF92CF92DF92EF92FF9284
S11300B00F931F93CF93DF93CDB7DEB728970FB677
S11300C0F894DEBF0FBECDBF8C0119821A821B8249
S11300D01C821D821E821F821886F894C198BA98C9
S11300E0BA9AC2988AE18A95F1F7BA98C19A789433
S11300F0C12CD12C760161C096D44B015C019CD4F7
S1130100B501A401440F551F661F771F440F551FE7
S1130110661F771F440F551F661F771F4A015B0137
S1130120880C991CAA1CBB1C880C991CAA1CBB1CFF
S1130130480D591D6A1D7B1D4A015B01880C991CE1
S1130140AA1CBB1C880C991CAA1CBB1C480D591D5D
S11301506A1D7B1D4A015B01880C991CAA1CBB1CEF
S1130160880C991CAA1CBB1C480D591D6A1D7B1DBB
S1130170480F591F611D711D4D835E836F837887FE
S11301808D819E81AF81B88549815A816B817C8143
S1130190841B950BA60BB70B0A97A105B10568F054
S11301A08AE0C80ED11CE11CF11C8D819E81AF81B7
S11301B0B88589839A83AB83BC83B2990BC0F80159
S11301C085819681A781B085C816D906EA06FB0603
S11301D008F492CFF80181899289A389B4898C0D9E
S11301E09D1DAE1DBF1D818B928BA38BB48BF89488
S11301F0C29ABA9AC29ABA98C1987894BA9AC2988A
S11302008AE18A95F1F7BA9888EC90E00197F1F7C2
S113021085819681A781B085C816D906EA06FB06B2
S113022028F461E070E080E090E004C06EEF7FEFBE
S11302308FEF9FEF28960FB6F894DEBF0FBECDBFA9
S1130240DF91CF911F910F91FF90EF90DF90CF90AE
S1130250BF90AF909F908F900895CF92DF92EF92CE
S1130260FF920F931F93CF93DF93FC01118A128A9D
S1130270138A148A662309F46AC0208122230CF4A9
S11302806AC0D62F8C01C0E0C8010ADF99230CF4A0
S113029066C0CF5FCD13F8CFC6D3F801C584D6842A
S11302A0E784F088DC01CB018C199D09AE09BF09F4
S11302B0C184D284E384F484C816D906EA06FB0612
S11302C040F5618172818381948121893289261B61
S11302D0370BE901DD2324F4CC27DD27C21BD30B24
S11302E0E5D32DEC3CEC4CEC5DE36ED4AED3C617F9
S11302F0D7077CF48FEF9FEFAFEFBFE0F801818366
S11303009283A383B4838FD3F80165877687878725
S1130310908BF80181899289A389B489C180D280A4
S1130320E380F4808C159D05AE05BF0520F4818320
S11303309283A383B483F8010181128123813481E0
S1130340BC01CD01601B710B820B930B0CC060E0F0
S113035070E0CB0108C06FEF7FEFCB0104C06EEFFC
S11303607FEF8FEF9FEFDF91CF911F910F91FF9060
S1130370EF90DF90CF90089565E084E790E06DDF23
S113038021E06F307105810591050CF420E0822F86
S11303900895CF93DF93C0916000D0916100CC0F9A
S11303A0DD1FEADF9E01306C282B3093610020931F
S11303B0600081E02F3F3F4F09F080E0DF91CF9153
S11303C00895FC011182108213821282148282E049
S11303D090E0A0E0B0E08787908BA18BB28B17826E
S11303E0108611861286138614861586168608953D
S11303F0009719F0019721F00895C398C49A0895BD
S1130400C39AC4980895C398C4988FEF89BD08957A
S11304102F923F924F925F926F927F928F929F9210
S1130420AF92BF92CF92DF92EF92FF920F931F93FE
S1130430CF93DF93CDB7DEB760970FB6F894DEBFE6
S11304400FBECDBF4B015C0129873A874B875C8780
S1130450C801B7012BD36D877E878F87988B20E0E7
S113046030E04AEF54E4B0D36D837E838F83988762
S113047020E030E040E85FE3E4D288233CF120E070
S11304803FEF4FE757E46D817E818F81988598D344
S11304901816B4F420E030E040E251E46D857E8526
S11304A08F85988991D3D6D261157105A1F028EC76
S11304B030E0C9010197F1F761507109D1F70BC020
S11304C06D817E818F819885C5D202C061E070E024
S11304D0CB010197F1F781149104A104B10409F44B
S11304E09BC06D817E818F819885B4D26B017C0124
S11304F020E030E040E85FE36D817E818F81988564
S1130500A0D288231CF491E080E002C09C2D8D2DA4
S1130510092F182F412C512C32010F2EF8EC2F2EBD
S1130520312CF02D19BC81E090E062DF69857A8579
S11305308B859C85BBD269837A838B839C8320E0E3
S113054030E04AEF54E440D36B017C0120E030E01A
S113055040E85FE376D288230CF120E03FEF4FE7D9
S113056057E4C701B6012CD31816A4F420E030E0F8
S113057040E251E469817A818B819C8125D36AD2DE
S11305806115710581F0C1010197F1F7615071099D
S1130590D1F709C0C701B6015DD202C061E070E0C5
S11305A0CB010197F1F72FDF20E030E040E85FE373
S11305B06D817E818F81988544D28823FCF020E070
S11305C03FEF4FE757E46D817E818F819885F8D2A4
S11305D01816A4F420E030E040E251E46D857E85F5
S11305E08F859889F1D236D26115710551F0C10118
S11305F00197F1F761507109D1F703C0C801019760
S1130600F1F78FEF481A580A680A780A481459040F
S11306106A047B0409F086CF60960FB6F894DEBFB7
S11306200FBECDBFDF91CF911F910F91FF90EF903F
S1130630DF90CF90BF90AF909F908F907F906F90FE
S11306405F904F903F902F9008954F925F926F92DA
S11306507F928F929F92AF92BF92CF92DF92EF924E
S1130660FF920F931F93CF93DF93EC014B885C8829
S11306706D887E88C301B2018827992729E630E96D
S113068040E050E05AD3822E932EA42EB52EA3011F
S113069066277727480D591D6A1D7B1D4B8B5C8B84
S11306A06D8B7E8BCF84D888E988FA884601570100
S11306B0AA24BB24D501C401880F991FAA1FBB1FFC
S11306C0880F991FAA1FBB1F8C019D01000F111FCA
S11306D0221F331F000F111F221F331F080F191F62
S11306E02A1F3B1F081919092A093B09000F111F6A
S11306F0221F331F000F111F221F331F081919094E
S11307002A093B09000F111F221F331F000F111F5D
S1130710221F331F000F111F221F331F000F111F31
S1130720221F331FD901C801880F991FAA1FBB1F9D
S1130730880F991FAA1FBB1F880F991FAA1FBB1FD1
S1130740880F991FAA1FBB1F801B910BA20BB30B11
S11307506701EE24FF24C80ED91EEA1EFB1ECF86B5
S1130760D88AE98AFA8ABA0155274427CB01BA0103
S11307706C0D7D1D8E1D9F1DDF91CF911F910F91DB
S1130780FF90EF90DF90CF90BF90AF909F908F90AD
S11307907F906F905F904F900895CF92DF92EF9289
S11307A0FF920F931F93CF93DF93EC013CD12881E9
S11307B0398123303105F1F038F42130310579F0F5
S11307C02230310591F009C02530310509F452C0B9
S11307D0B8F02630310509F44FC015DE4EC084E66A
S11307E089BD80E090E004DE48C019BC80E090E060
S11307F0FFDD43C084E689BD81E090E0F9DD3DC0C2
S11308000F81188529853A856B017C01C01AD10AAC
S1130810E20AF30A0B851C852D853E850C151D0502
S11308202E053F0550F56F83788789879A87CE0117
S11308300CDFDC01CB019927AA27BB2780589F4FE7
S1130840AF4FBF4F682F609569BD80E090E0D0DD69
S1130850CE01FBDE28E833E140E050E04AD2DC017F
S1130860CB0188519C4FAF4FBF4F8B879C87AD877F
S1130870BE8703C0C8DD01C0C6DDDF91CF911F91E3
S11308800F91FF90EF90DF90CF900895F89480E857
S113089086BD16BC82E087BD07B400FEFDCF87B5D8
S11308A0846087BD87B3896187BB85E880BF87E2A1
S11308B08DBD89B7806489BF789483EC8ABD82E05A
S11308C083BF0895E3DF89E890E07BDD84E790E06F
S11308D0C2DBC9E8D0E0A7D060936A0070936B00D4
S11308E080936C0090936D000091660010916700F6
S11308F020916800309169006B017C01C01AD10A13
S1130900E20AF30A970186010B301105210531052E
S113091008F44BC06093660070936700809368008E
S11309209093690036DD813009F03FC07CD060933C
S11309306A0070936B0080936C0090936D0000913B
S113094062001091630020916400309165006B0196
S11309507C01C01AD10AE20AF30A970186010B3F0F
S113096011052105310508F160936200709363005D
S11309708093640090936500888199810196873003
S1130980910518F49983888302C0198218826881BA
S1130990798180E090E012E3E12EF12C00E010E098
S11309A024E630E040E050E033DDCE01F6DE93CFC4
S11309B01F920F920FB60F9211242F938F939F9330
S11309C0AF93BF9380916E0090916F000A969093BD
S11309D06F0080936E0080916E0090916F00883E4E
S11309E09340B9F410926F0010926E0080917000E1
S11309F090917100A0917200B09173000196A11DB5
S1130A00B11D8093700090937100A0937200B09315
S1130A107300BF91AF919F918F912F910F900FBE53
S1130A200F901F90189560917000709171008091E3
S1130A30720090917300089580916E0090916F0000
S1130A40089571D008F481E0089504D06894B11138
S1130A50B1C0089594D088F09F5790F0B92F99278A
S1130A60B751A0F0D1F0660F771F881F991F1AF0B5
S1130A70BA95C9F712C0B13081F09BD0B1E00895A6
S1130A8098C0672F782F8827B85F39F0B93FCCF327
S1130A90869577956795B395D9F73EF490958095AB
S1130AA0709561957F4F8F4F9F4F0895E89409C0CB
S1130AB097FB3EF490958095709561957F4F8F4F8D
S1130AC09F4F9923A9F0F92F96E9BB279395F695A3
S1130AD0879577956795B795F111F8CFFAF4BB0F21
S1130AE011F460FF1BC06F5F7F4F8F4F9F4F16C085
S1130AF0882311F096E911C0772321F09EE8872F0F
S1130B00762F05C0662371F096E8862F70E060E0CA
S1130B102AF09A95660F771F881FDAF7880F969543
S1130B20879597F90895990F0008550FAA0BE0E8E7
S1130B30FEEF16161706E807F907C0F0121613069B
S1130B40E407F50798F0621B730B840B950B39F4DB
S1130B500A2661F0232B242B252B21F408950A2641
S1130B6009F4A140A6958FEF811D811D089557FDBD
S1130B709058440F551F59F05F3F71F04795880F07
S1130B8097FB991F61F09F3F79F08795089512169E
S1130B9013061406551FF2CF4695F1DF08C016164A
S1130BA017061806991FF1CF8695710561050894FB
S1130BB00895E894BB2766277727CB0197F9089512
S1130BC0B2DF08F48FEF08950AD080C071D028F006
S1130BD076D018F0952309F062C067C0EBCFC7DF69
S1130BE0A8F39923D9F35523C9F3950F50E0551F62
S1130BF0AA27EE27FF27BB2700240894679520F433
S1130C00E20FF31FB41F0A1E220F331F441FAA1F33
S1130C106695A9F7779530F4F30FB41F0A1E121ED8
S1130C2008F46395330F441FAA1F221F769599F782
S1130C30879520F4B40F0A1E121E631F440FAA1FC7
S1130C40221F331F8695A9F7862F712D602D11243D
S1130C509F5750408AF0E1F088234AF0EE0FFF1FBF
S1130C60BB1F661F771F881F91505040A9F79E3FF6
S1130C70510570F014C09ECF5F3FECF3983EDCF357
S1130C80869577956795B795F795E7959F5FC1F733
S1130C90FE2B880F911D9695879597F9089597F9DE
S1130CA09F6780E870E060E008959FEF80EC08950E
S1130CB000240A9416161706180609060895002437
S1130CC00A9412161306140605060895092E0394B1
S1130CD0000C11F4882352F0BB0F40F4BF2B11F425
S1130CE060FF04C06F5F7F4F8F4F9F4F0895F8944C
S1130CF0A4C0A1E21A2EAA1BBB1BFD010DC0AA1F92
S1130D00BB1FEE1FFF1FA217B307E407F50720F070
S1130D10A21BB30BE40BF50B661F771F881F991FEB
S1130D201A9469F760957095809590959B01AC0134
S1130D30BD01CF01089568940013E894A0E0B0E0E9
S1130D40E3EAF6E01DC0EFEFE7F959016A015E231B
S1130D50550FEE08FE2C87019B01AC019E23990FD1
S1130D60660B762FCB013BD0CDB7DEB7EAE024C0CB
S1130D702F923F924F925F926F927F928F929F92A7
S1130D80AF92BF92CF92DF92EF92FF920F931F9395
S1130D90CF93DF93CDB7DEB7CA1BDB0B0FB6F89446
S1130DA0DEBF0FBECDBF09942A88398848885F8486
S1130DB06E847D848C849B84AA84B984C884DF80F7
S1130DC0EE80FD800C811B81AA81B981CE0FD11DDB
S1130DD00FB6F894DEBF0FBECDBFED010895DF93CB
S1130DE0CF939F92A0E49A2E0024D001E001F00159
S1130DF016950795F794E794D794C794B794A79456
S1130E0048F41068A20FB31FC41FD51FE61FF71FB5
S1130E10081E191E220F331F441F551F661F771FFC
S1130E20881F991F9A9421F79D01AE01BF01C0014B
S1110E3011249F90CF91DF910895F894FFCF85
S9030000FC
